:020000040800F2
:1000000000800120452F0008F92C0008012D000870
:10001000092D0008112D0008192D0008000000000E
:10002000000000000000000000000000212D00087A
:100030002F2D0008000000003D2D00084B2D00086A
:10004000952F0008952F0008952F0008952F000880
:10005000952F0008952F0008952F0008952F000870
:10006000952F0008952F0008952F0008952F000860
:10007000952F0008952F0008952F0008952F000850
:10008000952F0008952F0008952F0008000000000C
:10009000000000000000000000000000952F000894
:1000A000952F0008952F0008952F0008952F000820
:1000B000952F0008952F0008952F0008952F000810
:1000C000952F0008952F0008952F0008952F000800
:1000D000952F0008952F0008952F000800000000BC
:1000E000952F0008952F0008952F000800000000AC
:1000F000000000000000000000000000952F000834
:1001000000000000952F0008952F0008952F00088B
:1001100000000000000000000000000000000000DF
:10012000592D0008952F0008952F00086D2D000807
:10013000952F0008000000000000000000000000F3
:10014000000000000000000000000000952F0008E3
:10015000952F0008812D0008952F0008952F000885
:10016000952F0008952F00080000000000000000F7
:10017000000000000000000000000000000000007F
:1001800000000000952F00080000000000000000A3
:04019000952F00089F
:1001A00010B5054C237833B9044B13B10448AFF3B1
:1001B00000800123237010BDCCD50020000000007A
:1001C0001CAE000808B5034B1BB103490348AFF34D
:1001D000008008BD00000000D0D500201CAE000843
:1001E00001F0FF01102A2BDB10F0070F08D010F8E8
:1001F000013B013A8B422DD010F0070F42B3F6D1EC
:10020000F0B441EA012141EA014122F007047FF004
:1002100000070023F0E80256083C85EA010586EA5B
:10022000010685FA47F5A3FA87F586FA47F6A5FA97
:1002300087F68EB9EED1F0BC01F0FF0102F00702A3
:1002400032B110F8013B013A83EA010313B1F8D14E
:100250000020704701387047002D06BF354603382F
:10026000073815F0010F07D1013015F4807F02BF68
:10027000013015F4C03F0130F0BC0138704700BFB9
:10028000034613F8012B002AFBD1181A01387047D6
:1002900081F0004102E000BF83F0004330B54FEA37
:1002A00041044FEA430594EA050F08BF90EA020FA4
:1002B0001FBF54EA000C55EA020C7FEA645C7FEA37
:1002C000655C00F0E2804FEA5454D4EB5555B8BF5A
:1002D0006D420CDD2C4480EA020281EA030382EACB
:1002E000000083EA010180EA020281EA0303362D5D
:1002F00088BF30BD11F0004F4FEA01314FF4801C30
:100300004CEA113102D0404261EB410113F0004F41
:100310004FEA03334CEA133302D0524263EB4303F8
:1003200094EA050F00F0A780A4F10104D5F1200E96
:100330000DDB02FA0EFC22FA05F2801841F10001F1
:1003400003FA0EF2801843FA05F359410EE0A5F1C5
:1003500020050EF1200E012A03FA0EFC28BF4CF0F6
:10036000020C43FA05F3C01851EBE37101F00045AC
:1003700007D54FF0000EDCF1000C7EEB00006EEBB9
:100380000101B1F5801F1BD3B1F5001F0CD3490843
:100390005FEA30004FEA3C0C04F101044FEA44529A
:1003A00012F5800F80F09A80BCF1004F08BF5FEA21
:1003B000500C50F1000041EB045141EA050130BD01
:1003C0005FEA4C0C404141EB0101013C28BFB1F513
:1003D000801FE9D291F0000F04BF01460020B1FA5E
:1003E00081F308BF2033A3F10B03B3F120020CDA31
:1003F0000C3208DD02F1140CC2F10C0201FA0CF00F
:1004000021FA02F10CE002F11402D8BFC2F1200C73
:1004100001FA02F120FA0CFCDCBF41EA0C01904029
:10042000E41AA2BF01EB0451294330BD6FEA040472
:100430001F3C1CDA0C340EDC04F11404C4F120025D
:1004400020FA04F001FA02F340EA030021FA04F36F
:1004500045EA030130BDC4F10C04C4F1200220FAC6
:1004600002F001FA04F340EA0300294630BD21FA04
:1004700004F0294630BD94F0000F83F4801306BFCA
:1004800081F480110134013D4EE77FEA645C18BFBE
:100490007FEA655C29D094EA050F08BF90EA020F55
:1004A00005D054EA000C04BF1946104630BD91EA4D
:1004B000030F1EBF0021002030BD5FEA545C05D150
:1004C0004000494128BF41F0004130BD14F580048F
:1004D0003CBF01F5801130BD01F0004545F0FE4103
:1004E00041F470014FF0000030BD7FEA645C1ABF38
:1004F000194610467FEA655C1CBF0B46024650EA6F
:10050000013406BF52EA033591EA030F41F400219A
:1005100030BD00BF90F0000F04BF0021704730B520
:100520004FF4806404F132044FF000054FF00001F5
:1005300050E700BF90F0000F04BF0021704730B5B6
:100540004FF4806404F1320410F0004548BF40428B
:100550004FF000013EE700BF42004FEAE2014FEAE0
:1005600031014FEA02701FBF12F07F4393F07F4FBB
:1005700081F06051704732F07F4208BF704793F0BE
:100580007F4F04BF41F40021704730B54FF46074D1
:1005900001F0004521F000411CE700BF50EA0102D4
:1005A00008BF704730B54FF000050AE050EA01027D
:1005B00008BF704730B511F0004502D5404261EBED
:1005C00041014FF4806404F132045FEA915C3FF42E
:1005D000D8AE4FF003025FEADC0C18BF03325FEACB
:1005E000DC0C18BF033202EBDC02C2F1200300FA7C
:1005F00003FC20FA02F001FA03FE40EA0E0021FAA1
:1006000002F11444BDE600BF70B54FF0FF0C4CF48E
:10061000E06C1CEA11541DBF1CEA135594EA0C0F40
:1006200095EA0C0F00F0DEF82C4481EA030621EA7B
:100630004C5123EA4C5350EA013518BF52EA0335B6
:1006400041F4801143F4801338D0A0FB02CE4FF068
:100650000005E1FB02E506F00042E0FB03E54FF098
:100660000006E1FB03569CF0000F18BF4EF0010E90
:10067000A4F1FF04B6F5007F64F5407404D25FEA8C
:100680004E0E6D4146EB060642EAC62141EA55513F
:100690004FEAC52040EA5E504FEACE2EB4F1FD0C81
:1006A00088BFBCF5E06F1ED8BEF1004F08BF5FEAFF
:1006B000500E50F1000041EB045170BD06F00046B1
:1006C00046EA010140EA020081EA0301B4EB5C045E
:1006D000C2BFD4EB0C0541EA045170BD41F4801156
:1006E0004FF0000E013C00F3AB8014F1360FDEBF7B
:1006F000002001F0004170BDC4F10004203C35DA57
:100700000C341BDC04F11404C4F1200500FA05F3D9
:1007100020FA04F001FA05F240EA020001F000427A
:1007200021F0004110EBD37021FA04F642EB0601F0
:100730005EEA430E08BF20EAD37070BDC4F10C041A
:10074000C4F1200500FA04F320FA05F001FA04F2DE
:1007500040EA020001F0004110EBD37041F10001CA
:100760005EEA430E08BF20EAD37070BDC4F12005D5
:1007700000FA05F24EEA020E20FA04F301FA05F23D
:1007800043EA020321FA04F001F0004121FA04F2E5
:1007900020EA020000EBD3705EEA430E08BF20EAB5
:1007A000D37070BD94F0000F0FD101F000464000EF
:1007B00041EB010111F4801F08BF013CF7D041EA71
:1007C000060195F0000F18BF704703F00046520075
:1007D00043EB030313F4801F08BF013DF7D043EA46
:1007E0000603704794EA0C0F0CEA135518BF95EAFC
:1007F0000C0F0CD050EA410618BF52EA4306D1D183
:1008000081EA030101F000414FF0000070BD50EAA1
:10081000410606BF1046194652EA430619D094EA2B
:100820000C0F02D150EA013613D195EA0C0F05D115
:1008300052EA03361CBF104619460AD181EA030169
:1008400001F0004141F0FE4141F470014FF0000021
:1008500070BD41F0FE4141F4780170BD70B54FF0BC
:10086000FF0C4CF4E06C1CEA11541DBF1CEA13553C
:1008700094EA0C0F95EA0C0F00F0A7F8A4EB05041E
:1008800081EA030E52EA03354FEA013100F0888015
:100890004FEA03334FF0805545EA131343EA1263DE
:1008A0004FEA022245EA111545EA10654FEA002693
:1008B0000EF000419D4208BF964244F1FD0404F54C
:1008C000407402D25B084FEA3202B61A65EB0305A8
:1008D0005B084FEA32024FF480104FF4002CB6EB65
:1008E000020E75EB030E22BFB61A754640EA0C00E5
:1008F0005B084FEA3202B6EB020E75EB030E22BF25
:10090000B61A754640EA5C005B084FEA3202B6EB65
:10091000020E75EB030E22BFB61A754640EA9C0024
:100920005B084FEA3202B6EB020E75EB030E22BFF4
:10093000B61A754640EADC0055EA060E18D04FEAB2
:10094000051545EA16754FEA06164FEAC30343EA52
:1009500052734FEAC2025FEA1C1CC0D111F4801F1F
:100960000BD141EA00014FF000004FF0004CB6E718
:1009700011F4801F04BF01430020B4F1FD0C88BFB7
:10098000BCF5E06F3FF6AFAEB5EB030C04BFB6EBC2
:10099000020C5FEA500C50F1000041EB045170BDB5
:1009A0000EF0004E4EEA113114EB5C04C2BFD4EBE2
:1009B0000C0541EA045170BD41F480114FF0000E66
:1009C000013C90E645EA060E8DE60CEA135594EAE2
:1009D0000C0F08BF95EA0C0F3FF43BAF94EA0C0FE5
:1009E0000AD150EA01347FF434AF95EA0C0F7FF45A
:1009F00025AF104619462CE795EA0C0F06D152EAAE
:100A000003353FF4FDAE1046194622E750EA410691
:100A100018BF52EA43067FF4C5AE50EA41047FF4A2
:100A20000DAF52EA43057FF4EBAE12E74FF0FF3C07
:100A300006E000BF4FF0010C02E000BF4FF0010CD8
:100A40004DF804CD4FEA410C7FEA6C5C4FEA430C51
:100A500018BF7FEA6C5C1BD001B050EA410C0CBFA0
:100A600052EA430C91EA030F02BF90EA020F002002
:100A7000704710F1000F91EA030F58BF994208BF69
:100A800090422CBFD8176FEAE37040F00100704726
:100A90004FEA410C7FEA6C5C02D150EA013C07D17D
:100AA0004FEA430C7FEA6C5CD6D152EA033CD3D0C8
:100AB0005DF8040B704700BF8446104662468C46C2
:100AC0001946634600E000BF01B5FFF7B7FF0028F5
:100AD00048BF10F1000F01BD4DF808EDFFF7F4FF1E
:100AE0000CBF012000205DF808FB00BF4DF808EDA9
:100AF000FFF7EAFF34BF012000205DF808FB00BFCC
:100B00004DF808EDFFF7E0FF94BF012000205DF8ED
:100B100008FB00BF4DF808EDFFF7CEFF94BF0120A2
:100B200000205DF808FB00BF4DF808EDFFF7C4FF9B
:100B300034BF012000205DF808FB00BF4FEA410CE4
:100B40007FEA6C5C02D150EA013C0AD14FEA430CC7
:100B50007FEA6C5C02D152EA033C02D14FF0000004
:100B600070474FF0010070474FEA410212F5001242
:100B700015D211D56FF47873B3EB625212D94FEAE4
:100B8000C12343F0004343EA505311F0004F23FACE
:100B900002F018BF404270474FF00000704750EA23
:100BA000013005D111F0004008BF6FF000407047E0
:100BB0004FF00000704700BF4A0011D212F500123A
:100BC00011D20DD56FF47873B3EB62520ED44FEAA5
:100BD000C12343F0004343EA505323FA02F0704725
:100BE0004FF00000704750EA013002D14FF0FF3063
:100BF00070474FF0000070474FEA4102B2F1E04306
:100C000024BFB3F5001CDCF1FE5C0DD901F0004CF3
:100C10004FEAC0024CEA5070B2F1004F40EB830043
:100C200008BF20F00100704711F0804F21D113F16F
:100C30003872BCBF01F00040704741F480114FEAA8
:100C40005252C2F11802C2F1200C10FA0CF320FA31
:100C500002F018BF40F001004FEAC1234FEAD3234E
:100C600003FA0CFC40EA0C0023FA02F34FEA4303B8
:100C7000CCE77FEA625307D150EA01331EBF4FF041
:100C8000FE4040F44000704701F0004040F0FE405C
:100C900040F40000704700BF53B94AB9002908BFAB
:100CA00000281CBF4FF0FF314FF0FF3000F0A0B91B
:100CB000ADF1080C6DE904CE00F03CF8DDF804E07D
:100CC000DDE9022304B0704738B500220023044652
:100CD0000D46FFF70BFF28B920462946BDE83840EE
:100CE00000F00AB8204605F1004100F005F8404246
:100CF00061EB410138BD00BFD0B50C4B0022064668
:100D00000F46FFF781FCFFF757FF0446FFF702FC91
:100D1000074B0022FFF778FC02460B463046394667
:100D2000FFF7BAFAFFF748FF2146D0BD0000F03DBB
:100D30000000F0412DE9F047089D0C46002B4ED1F4
:100D400094468C458646B2FA82F262D94AB1C2F123
:100D50002003914020FA03F30CFA02FC194300FA35
:100D600002FE4FEA1C471FFA8CF6B1FBF7F44FEA7C
:100D70001E4307FB141143EA014304FB06F19942A9
:100D80000AD91CEB030304F1FF3080F01281994271
:100D900040F20F81023C6344591A1FFA8EF3B1FBF3
:100DA000F7F007FB101143EA014300FB06F69E42F1
:100DB0000AD91CEB030300F1FF3180F0FC809E4256
:100DC00040F2F980634402389B1B40EA0440002152
:100DD0001DB1D3400022C5E90032BDE8F0878B4247
:100DE00005D90DB1C5E9000100210846F5E7B3FAC0
:100DF00083F1002946D1A34202D39042C0F0F08093
:100E0000861A64EB03030120002DE6D0C5E90063D8
:100E1000E3E7002A40F09080A1EB0C044FEA1C4865
:100E20001FFA8CF70121B4FBF8F64FEA1E4308FBCA
:100E3000164443EA044307FB06F0984208D91CEB2A
:100E4000030306F1FF3402D2984200F2CD80264619
:100E50001C1A1FFA8EF3B4FBF8F008FB104443EAA7
:100E6000044300FB07F79F4208D91CEB030300F182
:100E7000FF3402D29F4200F2B0802046DB1B40EAE2
:100E80000640A5E7C1F120068B4022FA06F71F4372
:100E900020FA06FC04FA01F343EA0C03F44000FADA
:100EA00001F8380C4FEA1349B4FBF0FE1FFA87FC37
:100EB00000FB1E4449EA04440EFB0CF9A14502FA6A
:100EC00001F20AD93C190EF1FF3A80F08480A14565
:100ED00040F28180AEF1020E3C44A4EB09041FFAFB
:100EE00083F9B4FBF0F300FB134449EA044403FB29
:100EF0000CFCA44507D93C1903F1FF3067D2A44587
:100F000065D9023B3C4443EA0E40A0FB0293A4EBAC
:100F10000C049C42CE469C4651D34ED055B1B8EB02
:100F20000E0364EB0C0404FA06F6CB401E43CC40DF
:100F3000C5E90064002150E7C2F1200320FA03F163
:100F40000CFA02FC24FA03F394400C434FEA1C48C9
:100F500000FA02FE1FFA8CF7B3FBF8F008FB103121
:100F6000230C43EA014300FB07F1994208D91CEB2B
:100F7000030300F1FF362CD299422AD90238634488
:100F80005B1AA4B2B3FBF8F108FB113344EA034443
:100F900001FB07F3A34208D91CEB040401F1FF365F
:100FA00013D2A34211D902396444E41A41EA004140
:100FB00039E70446F0E6084606E7C845AED2B9EB85
:100FC000020E63EB070C0138A8E73146EDE7034654
:100FD00099E73046D4E7D6467FE7634402384DE7C9
:100FE0000646234608460FE7023E634430E700BF4B
:100FF000704700BF80B582B000AF0346FB7100228E
:1010000001210B4803F02AFA01220421084803F0C9
:1010100025FAFB1D0121184600F088F80122012164
:10102000034803F01BFA00BF0837BD4680BD00BF70
:101030000004024080B582B000AF0346FB7100227D
:1010400001210B4803F00AFA00220421084803F0AA
:1010500005FAFB1D0121184600F068F80122012164
:10106000034803F0FBF900BF0837BD4680BD00BF51
:101070000004024080B584B000AF78607B681B0A32
:10108000FB737B68BB73BA7BFB7B1146184600F091
:1010900005F800BF1037BD4680BD000080B582B0A6
:1010A00000AF03460A46FB711346BB7100220121C3
:1010B0000D4803F0D3F9012204210B4803F0CEF9C7
:1010C000FB1D0121184600F031F8BB1D0121184617
:1010D00000F02CF801220121034803F0BFF900BF02
:1010E0000837BD4680BD00BF0004024080B582B015
:1010F00000AF78600B467B80002201210A4803F094
:10110000ADF901220421084803F0A8F97B881946AB
:10111000786800F00BF801220121034803F09EF9E2
:1011200000BF0837BD4680BD0004024080B584B0D2
:1011300000AF78600B467B807B881A467968084848
:1011400004F04EFA0346FB7300BF054804F018FB99
:101150000346012BF9D1FB7B18461037BD4680BDF5
:1011600050D6002080B500AF01220121FC4803F0D9
:1011700075F9052001F082FF00220221F84803F0F2
:101180006DF90A2001F07AFF01220221F44803F0F0
:1011900065F9782001F072FFEF20FFF74BFFEB209D
:1011A000FFF748FF1420FFF725FFFE20FFF742FF5F
:1011B000EF20FFF73FFFEB20FFF73CFF1420FFF786
:1011C00019FF8420FFF736FF4020FFF713FF85202B
:1011D000FFF730FFFF20FFF70DFF8620FFF72AFF04
:1011E000FF20FFF707FF8720FFF724FFFF20FFF70F
:1011F00001FF8820FFF71EFF0A20FFF7FBFE892072
:10120000FFF718FF2120FFF7F5FE8A20FFF712FFF6
:101210000020FFF7EFFE8B20FFF70CFF8020FFF789
:10122000E9FE8C20FFF706FF0120FFF7E3FE8D208B
:10123000FFF700FF0120FFF7DDFE8E20FFF7FAFE2B
:10124000FF20FFF7D7FE8F20FFF7F4FEFF20FFF708
:10125000D1FEB620FFF7EEFE0020FFF7CBFE002008
:10126000FFF7C8FE3620FFF7E5FE4820FFF7C2FE75
:101270003A20FFF7DFFE0520FFF7BCFE9020FFF7C6
:10128000D9FE0820FFF7B6FE0820FFF7B3FE0820BE
:10129000FFF7B0FE0820FFF7ADFEBD20FFF7CAFE46
:1012A0000620FFF7A7FEBC20FFF7C4FE0020FFF7D3
:1012B000A1FEFF20FFF7BEFE6020FFF79BFE01208E
:1012C000FFF798FE0420FFF795FEC320FFF7B2FE5C
:1012D0001320FFF78FFEC420FFF7ACFE1320FFF7AB
:1012E00089FEC920FFF7A6FE2220FFF783FEBE205D
:1012F000FFF7A0FE1120FFF77DFEE120FFF79AFE29
:101300001020FFF777FE0E20FFF774FEDF20FFF7B7
:1013100091FE2120FFF76EFE0C20FFF76BFE0220EE
:10132000FFF768FEF020FFF785FE4520FFF762FE1D
:101330000920FFF75FFE0820FFF75CFE0820FFF79B
:1013400059FE2620FFF756FE2A20FFF753FEF12014
:10135000FFF770FE4320FFF74DFE7020FFF74AFEB7
:101360007220FFF747FE3620FFF744FE3720FFF7D5
:1013700041FE6F20FFF73EFEF220FFF75BFE4520A7
:10138000FFF738FE0920FFF735FE0820FFF732FE91
:101390000820FFF72FFE2620FFF72CFE2A20FFF75C
:1013A00029FEF320FFF746FE4320FFF723FE7020BF
:1013B000FFF720FE7220FFF71DFE3620FFF71AFE12
:1013C0003720FFF717FE6F20FFF714FEED20FFF721
:1013D00031FE1B20FFF70EFE0B20FFF70BFEAE20A9
:1013E000FFF728FE7720FFF705FECD20FFF722FE4E
:1013F0006320FFF7FFFD7020FFF71CFE0720FFF7BB
:10140000F9FD0720FFF7F6FD0420FFF7F3FD0E209E
:10141000FFF7F0FD0F20FFF7EDFD0920FFF7EAFDD4
:101420000720FFF7E7FD0820FFF7E4FD0320FFF7A3
:10143000E1FDE820FFF7FEFD3420FFF7DBFD622031
:10144000FFF7F8FD1820FFF7D5FD0D20FFF7D2FDBF
:101450007120FFF7CFFDED20FFF7CCFD7020FFF7E7
:10146000C9FD7020FFF7C6FD1820FFF7C3FD0F2050
:10147000FFF7C0FD7120FFF7BDFDEF20FFF7BAFDBC
:101480007020FFF7B7FD7020FFF7B4FD6320FFF772
:10149000D1FD1820FFF7AEFD1120FFF7ABFD712045
:1014A000FFF7A8FDF120FFF7A5FD7020FFF7A2FDD3
:1014B0007020FFF79FFD1820FFF79CFD1320FFF71A
:1014C00099FD7120FFF796FDF320FFF793FD702043
:1014D000FFF790FD7020FFF78DFD6420FFF7AAFD58
:1014E0002820FFF787FD2920FFF784FDF120FFF773
:1014F00081FD0120FFF77EFDF120FFF77BFD00203D
:10150000FFF778FD0720FFF775FD6620FFF792FDD6
:101510003C20FFF76FFD0020FFF76CFDCD20FFF7AB
:1015200069FD6720FFF766FD4520FFF763FD452055
:10153000FFF760FD1020FFF75DFD0020FFF75AFD6B
:101540000020FFF757FD0020FFF754FD6720FFF74D
:1015500071FD0020FFF74EFD3C20FFF74BFD01E041
:10156000000402400020FFF745FD0020FFF742FD88
:101570000020FFF73FFD0120FFF73CFD5420FFF75F
:1015800039FD1020FFF736FD3220FFF733FD98209C
:10159000FFF730FD7420FFF74DFD1020FFF72AFD07
:1015A0008520FFF727FD8020FFF724FD0020FFF7AF
:1015B00021FD0020FFF71EFD4E20FFF71BFD002040
:1015C000FFF718FD9820FFF735FD3E20FFF712FDCD
:1015D0000720FFF70FFD3520FFF72CFD2120FFF737
:1015E00029FD1120FFF726FD782001F047FD292075
:1015F000FFF720FD142001F041FD00BF80BD00BFBA
:1016000080B584B002AF78607B680093F023F0224D
:101610000021002000F004F800BF0837BD4680BD5F
:101620002DE9F0438FB000AFF860B9607A603B609D
:101630006B461E46BB6D1B0A87F83330BB6D87F8BF
:10164000323097F832309BB21B029AB297F833309F
:101650009BB213443B867A68FB68D31A3968BA6830
:101660008A1A02FB03F35B00FB624FF40073BB6258
:10167000FB6ABA6AB3FBF2F2B96A01FB02F29B1A87
:10168000FA6AD21ABB6AB2FBF3F37B62FB6ABA6AEC
:10169000B3FBF2F2B96A01FB02F29B1A3B62B96A30
:1016A0000B46013BFB610023884699464FF0000240
:1016B0004FF000034FEA091343EA18734FEA081288
:1016C00000230C461D464FF000024FF000032B0193
:1016D00043EA147322014B000733DB08DB00ADEB58
:1016E000030D6B4601335B085B00BB6100237B632A
:1016F00007E0BB697A6B398E23F812107B6B0133DC
:101700007B637A6BBB6A9A42F3D37B685A1E3B6851
:10171000013BB968F86800F01EF8BB697B610023E3
:101720007B6308E0BB6A9BB219467869FFF7DEFC71
:101730007B6B01337B637A6B7B6A9A42F2D33B6AA1
:101740009BB219467869FFF7D1FCB54600BF3C371C
:10175000BD46BDE8F08380B584B000AFF860B960E5
:101760007A603B602A20FFF765FCFB681B0ADBB24E
:101770001846FFF73FFCFB68DBB21846FFF73AFC60
:101780007B681B0ADBB21846FFF734FC7B68DBB2D0
:101790001846FFF72FFC2B20FFF74CFCBB681B0AF9
:1017A000DBB21846FFF726FCBB68DBB21846FFF732
:1017B00021FC3B681B0ADBB21846FFF71BFC3B68A9
:1017C000DBB21846FFF716FC2C20FFF733FC00BFF6
:1017D0001037BD4680BD000080B586B000AFF86010
:1017E000B9603B601346FB71264B3B61FB68DA1D19
:1017F000BB680B33B968F868FFF7ADFFFB79A3F15D
:10180000200213465B0013449B001A463B691344B5
:101810003B610023BB752DE00023FB7521E03B6994
:101820001B781A46FB7DC3F1070342FA03F303F06A
:101830000103002B09D03B681B0ADBB23A68D2B225
:1018400011461846FFF72AFC08E03B6A1B0ADBB288
:101850003A6AD2B211461846FFF720FCFB7D0133ED
:10186000FB75FB7D072BDAD93B6901333B61BB7DFF
:101870000133BB75BB7D0B2BCED900BF00BF183722
:10188000BD4680BD0000002080B588B002AFF86082
:10189000B9607A603B60FB687B61BB683B610EE0CE
:1018A0007B681A783B6A00933B6839697869FFF76F
:1018B00093FF7B6907337B617B6801337B607B68C7
:1018C0001B78002BECD100BF00BF1837BD4680BD90
:1018D00080B584B000AFF860B9607A60BB68FA6820
:1018E000B968F868FFF737FF7868FFF7C3FB00BFF8
:1018F0001037BD4680BD80B58EB000AFF860B960CE
:101900007A603B6000233B630023FB627A68FB68DC
:10191000D31ABB623A68BB68D31A7B62FB687B61EF
:10192000BB683B61BB6A002B02DD0123FB610BE05E
:10193000BB6A002B02D10023FB6105E04FF0FF33AF
:10194000FB61BB6A5B42BB627B6A002B02DD012349
:10195000BB610BE07B6A002B02D10023BB6105E079
:101960004FF0FF33BB61BB6A5B427B62BA6A7B6A42
:101970009A4202DDBB6A3B6201E07B6A3B62002364
:101980007B6328E07B6939693A6C1846FFF7A0FF52
:101990003A6BBB6A13443B63FA6A7B6A1344FB628B
:1019A0003A6B3B6A9A4207DD3A6B3B6AD31A3B6358
:1019B0007A69FB6913447B61FA6A3B6A9A4207DDE4
:1019C000FA6A3B6AD31AFB623A69BB6913443B610A
:1019D0007B6B01337B633B6A01331A467B6B93421B
:1019E000D0D300BF00BF3837BD4680BD80B586B0BC
:1019F00002AFF860B9607A603B60BB690093BB6876
:101A00007A68B968F868FFF776FFBB6900933B68AE
:101A1000FA68B968F868FFF76EFFBB6900933B6826
:101A20007A683968F868FFF766FFBB6900933B681E
:101A30007A68B9687868FFF75EFF00BF1037BD4667
:101A400080BD000090B589B000AF0446084611463D
:101A50001A462346FB800346BB800B467B80134619
:101A60003B804FF4C343BB614FF400737B61BB69A0
:101A70007A69B3FBF2F2796901FB02F29B1ABA6947
:101A8000D21A7B69B2FBF3F33B61BB697A69B3FBA2
:101A9000F2F2796901FB02F29B1AFB60F888B988BF
:101AA000FA887B881344013B1C46BA883B88134460
:101AB000013B2246FFF74FFE144BBB600023FB6146
:101AC0000EE0FB697A6902FB03F3BA6813447A6992
:101AD00092B211461846FFF709FBFB690133FB611F
:101AE000FB693A699A42ECD8FB697A6902FB03F315
:101AF000BA681344FA6892B211461846FFF7F6FA2C
:101B000000F0D2F800BF2437BD4690BD7404002019
:101B100090B589B000AF0446084611461A462346E0
:101B2000FB800346BB800B467B8013463B804FF413
:101B3000C343BB614FF400737B61BB697A69B3FB3C
:101B4000F2F2796901FB02F29B1ABA69D21A7B6937
:101B5000B2FBF3F33B61BB697A69B3FBF2F27969DB
:101B600001FB02F29B1AFB60F888B988FA887B882F
:101B70001344013B1C46BA883B881344013B224670
:101B8000FFF7E9FD144BBB600023FB610EE0FB692E
:101B90007A6902FB03F3BA6813447A6992B2114678
:101BA0001846FFF7A3FAFB690133FB61FB693A6949
:101BB0009A42ECD8FB697A6902FB03F3BA681344D2
:101BC000FA6892B211461846FFF790FA00F09AF8B8
:101BD00000BF2437BD4690BDF465002090B589B0A4
:101BE00000AF0446084611461A462346FB800346CA
:101BF000BB800B467B8013463B804FF44863BB6140
:101C00004FF400737B61BB697A69B3FBF2F27969C7
:101C100001FB02F29B1ABA69D21A7B69B2FBF3F399
:101C20003B61BB697A69B3FBF2F2796901FB02F2AD
:101C30009B1AFB60F888B988FA887B881344013BBB
:101C40001C46BA883B881344013B2246FFF783FDBC
:101C5000144BBB600023FB610EE0FB697A6902FB59
:101C600003F3BA6813447A6992B211461846FFF733
:101C70003DFAFB690133FB61FB693A699A42ECD892
:101C8000FB697A6902FB03F3BA681344FA6892B2FB
:101C900011461846FFF72AFA00F062F800BF243711
:101CA000BD4690BD74C7002080B483B000AF002350
:101CB0007B601AE0124A7B6832F813301B0A9BB231
:101CC000FB700F4A7B6832F81330BB70BB789BB255
:101CD0001B029AB2FB789BB2134499B2084A7B6804
:101CE00022F813107B6801337B607B68B3F5435F98
:101CF000E0DB00BF00BF0C37BD465DF8047B7047DA
:101D00007404002080B483B000AF00237B601AE02D
:101D1000124A7B6832F813301B0A9BB2FB700F4AE1
:101D20007B6832F81330BB70BB789BB21B029AB24F
:101D3000FB789BB2134499B2084A7B6822F81310CF
:101D40007B6801337B607B68B3F5435FE0DB00BFFA
:101D500000BF0C37BD465DF8047B7047F46500207A
:101D600080B483B000AF00237B601AE0124A7B6826
:101D700032F813301B0A9BB2FB700F4A7B6832F8B3
:101D80001330BB70BB789BB21B029AB2FB789BB23C
:101D9000134499B2084A7B6822F813107B68013318
:101DA0007B607B68B3F5C86FE0DB00BF00BF0C371A
:101DB000BD465DF8047B704774C70020000000003A
:101DC000B0B584B002AF01F0E7F800F087FA00F098
:101DD000F1FA00F01FFD00F0EDFC00F0C9FB00F08F
:101DE0006DFB00F09BFC00F0F9FBFFF7BBF94FF631
:101DF000FF70FFF705FC3C23D02200211020FFF7E5
:101E000021FE3C23D022B4211020FFF781FE3C2389
:101E1000D02200211020FFF715FE3C23D022B42150
:101E20001020FFF775FE282328223C211420FFF7FD
:101E3000D5FE282328223C211420FFF7CFFE4FF6A1
:101E4000FF7300930023A04A49213C20FFF71CFDAB
:101E50004FF4784300935223642258213C20FFF72B
:101E60004AFD82233B600BE038683A6849F2BE6362
:101E70000093AA235221FFF73EFD3B6801333B60EC
:101E80003B68D12BF0DD4FF29F63009300238F4A14
:101E90005A218E20FFF7F8FC4FF29F630093002336
:101EA0008B4A64218C20FFF7EFFC4FF4FC63009316
:101EB000AA237F2264211420FFF798FD4FF6FF73B9
:101EC00000930023834A69211620FFF7DDFC4FF6BB
:101ED000FF7300930023804A78211620FFF7D4FC7B
:101EE0004FF6FF73009300237C4A87211620FFF7EB
:101EF000CBFC4FF6FF7300930023794A96211620FE
:101F0000FFF7C2FC00227749774803F0F0F8774BDF
:101F10000022DA6300227349734803F0E8F80022D4
:101F20007349714803F0C5F9714B9B781A46704BA1
:101F30005B7819466E4BDB7800930B466D496E4813
:101F400005F032FB4FF6FF73009300236A4A6921C4
:101F50003720FFF799FC634B1B781A46614B5B787F
:101F60006649674805F020FB4FF6FF730093002396
:101F7000634A78213720FFF787FC624B1B68624A6F
:101F8000136000224FF48071604802F067FA03206A
:101F900000F062FA01224FF480715C4802F05EFAB0
:101FA0000A2000F059FA00224FF48071574802F0DD
:101FB00055FA00BF4FF40071544802F037FA034657
:101FC000002BF7D000237B6005E07B6801337B604A
:101FD000022000F041FA4FF400714C4802F026FA5A
:101FE0000346012BF1D07B6807EE903AF8EE677A52
:101FF00017EE900AFEF7B0FA31A3D3E90023FEF7FB
:1020000003FB02460B4614461D46414B1846FEF79D
:10201000A3FA02460B4620462946FEF7F5FA024689
:102020000B4610461946FEF7E7FD0346354A136096
:10203000344B1B68374A1360364B93ED007A324BB2
:10204000D3ED007A77EE677AB1EE047AF4EEC77AD0
:10205000F1EE10FA09DA2F4BD3ED007AB3EE047AE1
:10206000F4EEC77AF1EE10FA5ED52B4B1B783B2BC2
:1020700005D9294B1B78373BDAB2274B1A70274B0F
:1020800001221A70174B5A78234B1A70224B1B7877
:102090000133DAB2204B1A701F4B1B781A462049C5
:1020A000204805F081FA4FF6FF73009300231D4A84
:1020B00087213C20FFF7E8FB5FE000BFAFF3008023
:1020C000666666666666064038AE000840AE000882
:1020D00048AE000850AE000858AE000860AE0008D8
:1020E00068AE000868D70020E8D500200000014055
:1020F0007CD7002074AE000880D8002088AE00088D
:1021000070D80020F4D30020A4D8002000000240A2
:10211000287E8C3CA8D80020A2D80020ACD8002073
:1021200094AE00089CD800205A4B5A785A4B1B7822
:102130009A4222D1594B00221A70564B1B781A46EC
:102140005749584805F030FA4FF6FF7300930023C3
:10215000544A96215020FFF797FB4F4B1B781A46A5
:102160005149524805F020FA4FF6FF7300930023BF
:102170004E4A96216420FFF787FB484B1B78012BC2
:1021800039D14B4B1B8840F65332934208D8494B08
:10219000DB6B642B04D8474BDB6B464A0533D363B8
:1021A000434B1B8840F6863293420FD9414BDB6B81
:1021B000002B04D03F4BDB6B3E4A053BD3633D4BCA
:1021C000DB6B002B02D13B4B0022DA63384B1B88C0
:1021D00040F65332934209D9354B1B8840F686327C
:1021E000934203D8334B334ADB6BD3630821324825
:1021F00003F0DAFC06E02F4B0022DA6308212E48B8
:1022000003F0D2FC2D4B1B681846FEF7A5F90246D9
:102210000B462B492B4805F0C7F94FF6FF73009387
:102220000023284A78219620FFF72EFB264800F04D
:102230008DFF1421244801F03DF8234801F0C5F832
:1022400003469AB21A4B1A80194B1B881A461F492B
:102250001F4805F0A9F94FF6FF73009300231C4AAD
:102260008C219620FFF710FB124BDB6B1A461949A5
:10227000194805F099F94FF6FF7300930023164AA9
:102280009B219620FFF700FB4FF47A7000F0F6FEDA
:1022900040E600BF68D70020A2D80020ACD80020BC
:1022A0009CAE000898D8002094AE0008A0D800206A
:1022B000AED800200000014080D70020F4D30020D9
:1022C000A4AE000890D8002008D60020ACAE0008CC
:1022D000B0D80020B8AE0008BCD8002080B594B0BB
:1022E00000AF07F1200330220021184605F0BFF9A6
:1022F00007F10C0300221A605A609A60DA601A61D2
:102300000023BB60294B1B6C284A43F080531364A5
:10231000264B1B6C03F08053BB60BB6800237B60C3
:10232000234B1B6823F44043214A43F400431360CA
:102330001F4B1B6803F440437B607B680A233B62AE
:102340000123FB6210233B6301237B630223BB63F6
:102350000023FB6308233B6454237B640223BB6498
:102360000423FB6407F12003184602F091F80346AA
:10237000002B01D000F0D0FA0F23FB6002233B6159
:1023800000237B614FF48053BB610023FB6107F1A5
:102390000C030221184602F0F3FA0346002B01D089
:1023A00000F0BAFA00BF5037BD4680BD0038024089
:1023B0000070004080B584B000AF3B4600221A6038
:1023C0005A609A60DA60214B214A1A601F4B4FF421
:1023D00080325A601D4B00229A601C4B00221A6109
:1023E0001A4B00221A76194B002283F82020174B33
:1023F0000022DA62154B174A9A62144B0022DA6007
:10240000124B0122DA61114B002283F830200F4B6E
:1024100001225A610D4800F055FE0346002B01D001
:1024200000F07AFA00233B6001237B600123BB604C
:102430003B461946054800F0D5FF0346002B01D066
:1024400000F06AFA00BF1037BD4680BD08D60020F4
:10245000002001400100000F80B483B000AF78601D
:102460007B68012B01D802237B60134A7B68013B08
:10247000D362114B01225A610F4B1B690E4A23F0A4
:10248000010313610C4B1B680B4A43F001031360FB
:1024900000BF094B1B6903F00103012BF9D1064B67
:1024A0001B69054A23F00103136100BF0C37BD46C9
:1024B0005DF8047B704700BF0008004080B586B01F
:1024C00000AF3B1D00221A605A609A60DA601A6100
:1024D00000233B60244B254A1A60234B00225A609C
:1024E000214B7F229A60204BFF22DA601E4B002294
:1024F0001A611D4B00225A611B4B00229A611A4837
:1025000002F0D8FC0346002B01D000F005FA0823A6
:102510003B7100237B710023BB7100233B610023CF
:102520007B613B1D012219460F4802F046FD034620
:10253000002B01D000F0F0F904233B7006237B70E0
:102540002023BB702423FB703B460122194606481A
:1025500002F02BFE0346002B01D000F0DDF900BF96
:102560001837BD4680BD00BFE8D5002000280040D8
:1025700080B500AF174B184A1A60164B4FF48272A1
:102580005A60144B00229A60124B0022DA60114B01
:1025900002221A610F4B01225A610E4B4FF4007256
:1025A0009A610C4B0022DA610A4B00221A62094B35
:1025B00000225A62074B00229A62064B0A22DA6214
:1025C000044802F083FF0346002B01D000F0A4F979
:1025D00000BF80BD50D600200030014080B596B0CD
:1025E00000AF07F1480300221A605A609A60DA606F
:1025F00007F1400300221A605A6007F12403002209
:102600001A605A609A60DA601A615A619A613B1DD9
:1026100020220021184605F02AF83E4B3E4A1A6057
:102620003C4B53225A603B4B00229A60394B632249
:10263000DA60384B00221A61364B00225A61354B62
:1026400000229A61334803F007FA0346002B01D0B9
:1026500000F062F94FF48053BB6407F14803194658
:102660002C4803F013FC0346002B01D000F054F972
:10267000284803F040FA0346002B01D000F04CF943
:1026800000233B6400237B6407F140031946214883
:1026900003F09CFF0346002B01D000F03DF96023BE
:1026A0007B620023BB620023FB6200233B630023A9
:1026B0007B630023BB630023FB6307F12403082231
:1026C0001946144803F020FB0346002B01D000F00C
:1026D00023F900237B600023BB600023FB60002301
:1026E0003B6100237B614FF40053BB6100233B62DD
:1026F0003B1D1946074803F0D7FF0346002B01D0C6
:1027000000F00AF9034800F0BDFA00BF5837BD4693
:1027100080BD00BF80D700200000014080B586B09A
:1027200000AF07F1080300221A605A609A60DA606D
:102730003B4600221A605A601C4B1D4A1A601B4B14
:1027400053225A60194B00229A60184B0022DA601B
:10275000164B00221A61154B00229A61134803F0B0
:102760007BF90346002B01D000F0D6F84FF48053DC
:10277000BB6007F1080319460C4803F087FB0346CA
:10278000002B01D000F0C8F800233B6000237B60E1
:102790003B461946054803F019FF0346002B01D0BC
:1027A00000F0BAF800BF1837BD4680BDC8D700207A
:1027B0000008004080B582B000AF00237B60144B5E
:1027C0001B6B134A43F480031363114B1B6B03F41D
:1027D00080037B607B6800220021382001F0FBF839
:1027E000382001F014F9002200213B2001F0F3F819
:1027F0003B2001F00CF900220021452001F0EBF80C
:10280000452001F004F900BF0837BD4680BD00BF78
:102810000038024080B58AB000AF07F114030022EF
:102820001A605A609A60DA601A6100233B61374B84
:102830001B6B364A43F004031363344B1B6B03F0EA
:1028400004033B613B690023FB60304B1B6B2F4A49
:1028500043F0800313632D4B1B6B03F08003FB607D
:10286000FB680023BB60294B1B6B284A43F0010324
:102870001363264B1B6B03F00103BB60BB68002393
:102880007B60224B1B6B214A43F0020313631F4BF7
:102890001B6B03F002037B607B6800224FF48071A6
:1028A0001B4801F0DBFD002207211A4801F0D6FD8C
:1028B00007237B610123BB610023FB6100233B6293
:1028C00007F114031946134801F02CFC4FF48073F0
:1028D0007B610123BB610023FB6100233B6207F1A5
:1028E000140319460A4801F01DFC4FF400737B6184
:1028F0000023BB610023FB6107F114031946044860
:1029000001F010FC00BF2837BD4680BD00380240F2
:10291000000002400004024080B400AF72B600BF65
:1029200000BFFDE780B483B000AF00237B60104B95
:102930005B6C0F4A43F4804353640D4B5B6C03F4B0
:1029400080437B607B6800233B60094B1B6C084A1B
:1029500043F080531364064B1B6C03F080533B60C1
:102960003B6800BF0C37BD465DF8047B704700BF75
:102970000038024080B58AB000AF786007F11403D8
:1029800000221A605A609A60DA601A617B681B68DC
:10299000174A934227D100233B61164B5B6C154AC3
:1029A00043F480735364134B5B6C03F480733B619B
:1029B0003B690023FB600F4B1B6B0E4A43F0010386
:1029C00013630C4B1B6B03F00103FB60FB680123DB
:1029D0007B610323BB610023FB6107F114031946EC
:1029E000054801F09FFB00BF2837BD4680BD00BFF2
:1029F00000200140003802400000024080B588B04D
:102A000000AF786007F10C0300221A605A609A60E8
:102A1000DA601A617B681B680C4A934211D1022369
:102A2000FB604FF40073BB6107F10C03184602F022
:102A300053F90346002B01D0FFF76EFF044B012230
:102A40001A6000BF2037BD4680BD00BF002800408F
:102A50003C0E474280B58AB000AF786007F114039E
:102A600000221A605A609A60DA601A617B681B68FB
:102A7000484A934240F08A8000233B61464B5B6C9E
:102A8000454A43F480535364434B5B6C03F48053D7
:102A90003B613B690023FB603F4B1B6B3E4A43F0AD
:102AA000010313633C4B1B6B03F00103FB60FB68EA
:102AB000E0237B610223BB610023FB6103233B62B4
:102AC00005237B6207F114031946344801F02AFB01
:102AD000334B344A1A60324B4FF0C0625A60304B6D
:102AE00040229A602E4B0022DA602D4B4FF4806218
:102AF0001A612B4B00225A61294B00229A61284B04
:102B00000022DA61264B4FF480321A62244B0022F5
:102B10005A62234800F096FF0346002B01D0FFF7CE
:102B2000FBFE7B681E4A9A641D4A7B6893631E4BBA
:102B30001E4A1A601C4B4FF0C0625A601A4B0022AA
:102B40009A60194B0022DA60174B4FF480621A61C9
:102B5000154B00225A61144B00229A61124B00223D
:102B6000DA61114B4FF480321A620F4B00225A6225
:102B70000D4800F067FF0346002B01D0FFF7CCFEA5
:102B80007B68094ADA64084A7B68936300BF283788
:102B9000BD4680BD003001400038024000000240C8
:102BA000A8D600205864024008D7002010640240D4
:102BB00080B584B000AF78607B681B682C4A934274
:102BC0003ED10023FB602B4B5B6C2A4A43F0010390
:102BD0005364284B5B6C03F00103FB60FB68264BDE
:102BE000264A1A60244B4FF040625A60224B402222
:102BF0009A60214B0022DA601F4B4FF480621A6109
:102C00001D4B4FF400625A611B4B4FF400529A6106
:102C1000194B0022DA61184B00221A62164B00226F
:102C20005A62154800F00EFF0346002B01D0FFF753
:102C300073FE7B68104ADA620F4A7B68936312E086
:102C40007B681B680E4A93420DD10023BB60094B81
:102C50001B6C084A43F004031364064B1B6C03F01F
:102C60000403BB60BB6800BF1037BD4680BD00BF1A
:102C7000000001400038024010D80020A06402404B
:102C80000008004080B588B000AF786007F10C0301
:102C900000221A605A609A60DA601A617B681B68C9
:102CA000124A93421ED10023BB60114B1B6B104A8A
:102CB00043F0010313630E4B1B6B03F00103BB6076
:102CC000BB684FF48063FB6002233B6100237B61A0
:102CD0000023BB610123FB6107F10C031946054882
:102CE00001F020FA00BF2037BD4680BD0000014042
:102CF000003802400000024080B400AF00BFFDE792
:102D000080B400AF00BFFDE780B400AF00BFFDE7B7
:102D100080B400AF00BFFDE780B400AF00BFFDE7A7
:102D200080B400AF00BFBD465DF8047B704780B43F
:102D300000AF00BFBD465DF8047B704780B400AFB4
:102D400000BFBD465DF8047B704780B500AF00F062
:102D500075F900BF80BD000080B500AF024800F0EB
:102D600077FF00BF80BD00BF08D7002080B500AF4F
:102D7000024800F06DFF00BF80BD00BFA8D6002054
:102D800080B500AF024800F063FF00BF80BD00BF08
:102D900010D8002080B400AF01231846BD465DF86E
:102DA000047B704780B582B000AF7860396004F072
:102DB000B1FC034616221A604FF0FF33184608375D
:102DC000BD4680BD80B582B000AF78604FF0FF3166
:102DD0007868FFF7E7FF00BFFDE780B586B000AF7A
:102DE000F860B9607A6000237B610AE0AFF300808D
:102DF0000146BB685A1CBA60CAB21A707B690133BB
:102E00007B617A697B689A42F0DB7B6818461837E9
:102E1000BD4680BD80B586B000AFF860B9607A600D
:102E200000237B6109E0BB685A1CBA601B78184616
:102E3000AFF300807B6901337B617A697B689A42DA
:102E4000F1DB7B6818461837BD4680BD80B483B07F
:102E500000AF78604FF0FF3318460C37BD465DF881
:102E6000047B704780B483B000AF786039603B6802
:102E70004FF400525A60002318460C37BD465DF8E7
:102E8000047B704780B483B000AF7860012318469C
:102E90000C37BD465DF8047B704780B485B000AF49
:102EA000F860B9607A60002318461437BD465DF8B3
:102EB000047B704780B586B000AF7860144A154B2C
:102EC000D31A7B617B693B61134B1B68002B02D1DA
:102ED000114B124A1A60104B1A687B6813443A6906
:102EE0009A4207D204F016FC03460C221A604FF0F7
:102EF000FF3309E0084B1B68FB60074B1A687B68CF
:102F00001344054A1360FB6818461837BD4680BD58
:102F10000080012000040000C4D8002018DA00203E
:102F200080B400AF064BD3F88830054A43F47003F1
:102F3000C2F8883000BFBD465DF8047B704700BF13
:102F400000ED00E0DFF834D0FFF7EAFF0C480D4950
:102F50000D4A002302E0D458C4500433C4188C42F4
:102F6000F9D30A4A0A4C002301E013600432A2425A
:102F7000FBD304F0D5FBFEF723FF70470080012050
:102F800000000020CCD5002010B30008CCD50020D4
:102F900018DA0020FEE7000080B500AF0E4B1B687A
:102FA0000D4A43F4007313600B4B1B680A4A43F449
:102FB00080631360084B1B68074A43F480731360F7
:102FC000032000F0FDFC0F2000F008F8FFF7AAFC3A
:102FD0000023184680BD00BF003C024080B582B08F
:102FE00000AF7860124B1A68124B1B7819464FF4E9
:102FF0007A73B3FBF1F3B2FBF3F3184600F015FD5F
:103000000346002B01D001230EE07B680F2B0AD86A
:10301000002279684FF0FF3000F0DDFC064A7B6843
:103020001360002300E0012318460837BD4680BD29
:10303000F8D3002000D40020FCD3002080B400AFDF
:10304000064B1B781A46064B1B681344044A136050
:1030500000BFBD465DF8047B704700BF00D4002070
:10306000C8D8002080B400AF034B1B681846BD468B
:103070005DF8047B704700BFC8D8002080B584B0DD
:1030800000AF7860FFF7EEFFB8607B68FB60FB681D
:10309000B3F1FF3F05D00A4B1B781A46FB68134477
:1030A000FB6000BFFFF7DEFF0246BB68D31AFA6879
:1030B0009A42F7D800BF00BF1037BD4680BD00BFA1
:1030C00000D4002080B584B000AF78600023FB738B
:1030D0007B68002B01D1012333E07B681B6C002B44
:1030E00009D17868FFF746FC7B6800225A647B6848
:1030F000002283F83C207B681B6C03F01003002B3C
:1031000018D17B681B6C23F4885323F0020343F02F
:1031100002027B681A64786800F086FA7B680022F5
:103120005A647B681B6C23F0030343F001027B6845
:103130001A6401E00123FB737B68002283F83C20C2
:10314000FB7B18461037BD4680BD000080B485B0BB
:1031500000AF78600023BB607B6893F83C30012BA4
:1031600001D1022397E07B68012283F83C207B6831
:103170001B689B6803F00103012B18D07B681B6858
:103180009A687B681B6842F001029A60454B1B6895
:10319000454AA2FB03239A0C13465B001344BB6011
:1031A00002E0BB68013BBB60BB68002BF9D17B68C8
:1031B0001B689B6803F00103012B5FD17B681B6CCC
:1031C00023F4E06323F0010343F480727B681A6404
:1031D0007B681B685B6803F48063002B07D07B6807
:1031E0001B6C23F4405343F480527B681A647B6861
:1031F0001B6C03F48053B3F5805F06D17B685B6C76
:1032000023F006027B685A6402E07B6800225A645D
:103210007B68002283F83C20244BFB607B681B68A2
:103220006FF022021A60FB685B6803F01F03002B3B
:103230000FD17B681B689B6803F04053002B29D19A
:103240007B681B689A687B681B6842F080429A60C2
:1032500020E07B681B68164A93421BD17B681B6881
:103260009B6803F04053002B14D17B681B689A685D
:103270007B681B6842F080429A600BE07B681B6CA5
:1032800043F010027B681A647B685B6C43F00102B8
:103290007B685A64002318461437BD465DF8047BEA
:1032A000704700BFF8D3002083DE1B43002301409A
:1032B0000020014080B584B000AF78603960002301
:1032C000FB607B681B689B6803F48063B3F5806FC9
:1032D00013D17B681B689B6803F48073B3F5807F10
:1032E0000BD17B681B6C43F020027B681A647B68FF
:1032F000002283F83C20012363E0FFF7B3FEF8606F
:1033000021E03B68B3F1FF3F1DD03B68002B07D0A5
:10331000FFF7A8FE0246FB68D31A3A689A4212D217
:103320007B681B681B6803F00203022B0BD07B68D1
:103330001B6C43F004027B681A647B68002283F8EC
:103340003C2003233DE07B681B681B6803F00203FD
:10335000022BD6D17B681B686FF012021A607B6863
:103360001B6C43F400727B681A647B681B689B6863
:1033700003F04053002B23D17B681B7E002B1FD111
:103380007B681B68DB6A03F47003002B06D07B6844
:103390001B689B6803F48063002B11D17B681B6C56
:1033A00023F480727B681A647B681B6C03F480537F
:1033B000002B05D17B681B6C43F001027B681A640B
:1033C000002318461037BD4680BD80B483B000AFDF
:1033D00078607B681B68DB6C18460C37BD465DF86F
:1033E000047B704780B485B000AF786039600023FB
:1033F000BB607B6893F83C30012B01D1022305E1CF
:103400007B68012283F83C203B681B68092B25D987
:103410007B681B68D9683B681B689BB21A461346D9
:103420005B0013441E3B072202FA03F3DA437B6876
:103430001B680A40DA607B681B68D9683B689A6839
:103440003B681B689BB2184603465B0003441E3B67
:103450009A407B681B680A43DA6022E07B681B683D
:1034600019693B681B689BB21A4613465B001344FC
:10347000072202FA03F3DA437B681B680A401A61E9
:103480007B681B6819693B689A683B681B689BB23C
:10349000184603465B0003449A407B681B680A4356
:1034A0001A613B685B68062B24D87B681B68596BE4
:1034B0003B685A6813469B001344053B1F2202FADF
:1034C00003F3DA437B681B680A405A637B681B6816
:1034D000596B3B681B689BB218463B685A68134699
:1034E0009B001344053B00FA03F27B681B680A4308
:1034F0005A634CE03B685B680C2B24D87B681B68E4
:10350000196B3B685A6813469B001344233B1F22E8
:1035100002FA03F3DA437B681B680A401A637B688C
:103520001B68196B3B681B689BB218463B685A685E
:1035300013469B001344233B00FA03F27B681B688D
:103540000A431A6323E07B681B68D96A3B685A68A0
:1035500013469B001344413B1F2202FA03F3DA4354
:103560007B681B680A40DA627B681B68D96A3B6823
:103570001B689BB218463B685A6813469B0013446D
:10358000413B00FA03F27B681B680A43DA62224B74
:10359000FB607B681B68214A934209D13B681B682A
:1035A000122B05D1FB685B6843F48002FB685A600C
:1035B0007B681B68194A934223D13B681B68102B18
:1035C00003D03B681B68112B1BD1FB685B6843F47D
:1035D0000002FB685A603B681B68102B11D1104B2E
:1035E0001B68104AA2FB03239A0C13469B0013444A
:1035F0005B00BB6002E0BB68013BBB60BB68002BAB
:10360000F9D17B68002283F83C2000231846143748
:10361000BD465DF8047B7047002301400020014057
:10362000F8D3002083DE1B4380B485B000AF786000
:10363000794BFB60FB685B6823F44032FB685A609F
:10364000FB685A687B685B681A43FB685A607B6852
:103650001B685A687B681B6822F480725A607B681A
:103660001B6859687B681B691A027B681B680A43E0
:103670005A607B681B685A687B681B6822F040723E
:103680005A607B681B6859687B689A687B681B680E
:103690000A435A607B681B689A687B681B6822F43F
:1036A00000629A607B681B6899687B68DA687B684F
:1036B0001B680A439A607B689B6A584A934222D0EF
:1036C0007B681B689A687B681B6822F070629A604E
:1036D0007B681B6899687B689A6A7B681B680A43E9
:1036E0009A607B681B689A687B681B6822F040526E
:1036F0009A607B681B6899687B68DA6A7B681B68DC
:103700000A439A600FE07B681B689A687B681B68B5
:1037100022F070629A607B681B689A687B681B68FD
:1037200022F040529A607B681B689A687B681B682D
:1037300022F002029A607B681B6899687B681B7E96
:103740005A007B681B680A439A607B6893F82030B4
:10375000002B1BD07B681B685A687B681B6842F48F
:1037600000625A607B681B685A687B681B6822F499
:1037700060425A607B681B6859687B685B6A013BE2
:103780005A037B681B680A435A6007E07B681B6822
:103790005A687B681B6822F400625A607B681B6869
:1037A000DA6A7B681B6822F47002DA627B681B6845
:1037B000D96A7B68DB69013B1A057B681B680A4391
:1037C000DA627B681B689A687B681B6822F4007267
:1037D0009A607B681B6899687B6893F830305A025E
:1037E0007B681B680A439A607B681B689A687B68E1
:1037F0001B6822F480629A607B681B6899687B680A
:103800005B699A027B681B680A439A6000BF1437A1
:10381000BD465DF8047B7047002301400100000FA6
:1038200080B485B000AF78607B6803F00703FB606D
:103830000C4BDB68BB60BA684FF6FF031340BB60FC
:10384000FB681A02BB68134343F0BF6343F40033C1
:10385000BB60044ABB68D36000BF1437BD465DF847
:10386000047B704700ED00E080B400AF044BDB68E0
:103870001B0A03F007031846BD465DF8047B70473A
:1038800000ED00E080B483B000AF0346FB7197F910
:103890000730002B0BDBFB7903F01F02074997F978
:1038A00007305B09012000FA02F241F8232000BF33
:1038B0000C37BD465DF8047B704700BF00E100E0B7
:1038C00080B483B000AF03463960FB7197F90730CD
:1038D000002B0ADB3B68DAB20C4997F9073012017A
:1038E000D2B20B4483F800230AE03B68DAB20849FD
:1038F000FB7903F00F03043B1201D2B20B441A769A
:1039000000BF0C37BD465DF8047B704700E100E066
:1039100000ED00E080B489B000AFF860B9607A6073
:10392000FB6803F00703FB61FB69C3F10703042B8A
:1039300028BF0423BB61FB690433062B02D9FB6952
:10394000033B00E000237B614FF0FF32BB6902FACA
:1039500003F3DA43BB681A407B699A404FF0FF31AA
:103960007B6901FA03F3D9437B680B401343184684
:103970002437BD465DF8047B7047000080B582B0F7
:1039800000AF78607B68013BB3F1807F01D30123F6
:103990000FE00A4A7B68013B53600F214FF0FF3074
:1039A000FFF78EFF054B00229A60044B07221A6036
:1039B000002318460837BD4680BD00BF10E000E078
:1039C00080B582B000AF78607868FFF729FF00BF4C
:1039D0000837BD4680BD80B586B000AF0346B960EC
:1039E0007A60FB7300237B61FFF73EFF78617A68A2
:1039F000B9687869FFF78EFF024697F90F301146D4
:103A00001846FFF75DFF00BF1837BD4680BD80B583
:103A100082B000AF0346FB7197F907301846FFF7F5
:103A200031FF00BF0837BD4680BD80B582B000AF12
:103A300078607868FFF7A2FF034618460837BD464E
:103A400080BD000080B586B000AF786000237B6148
:103A5000FFF708FB38617B68002B01D1012399E057
:103A60007B68022283F835207B68002283F83420AB
:103A70007B681B681A687B681B6822F001021A6069
:103A80000FE0FFF7EFFA02463B69D31A052B08D97E
:103A90007B6820225A657B68032283F83520032344
:103AA00078E07B681B681B6803F00103002BE8D1FA
:103AB0007B681B681B687B617A69384B13407B61AC
:103AC0007B685A687B689B681A437B68DB681A438B
:103AD0007B681B691A437B685B691A437B689B6937
:103AE0001A437B68DB691A437B681B6A13437A6954
:103AF00013437B617B685B6A042B07D17B68DA6ABE
:103B00007B681B6B13437A6913437B617B681B687B
:103B10007A691A607B681B685B697B617B6923F04B
:103B200007037B617B685B6A7A6913437B617B680F
:103B30005B6A042B17D17B689B6A7A6913437B61AC
:103B40007B68DB6A002B0ED0786800F06FFA0346C2
:103B5000002B08D07B6840225A657B68012283F8DD
:103B60003520012316E07B681B687A695A61786802
:103B700000F026FA0346FB607B68DB6D3F229A402B
:103B8000FB689A607B6800225A657B68012283F893
:103B90003520002318461837BD4680BD3F8010F001
:103BA00080B586B000AFF860B9607A603B600023F2
:103BB000FB75FB689B6D3B61FB6893F83430012B10
:103BC00001D1022340E0FB68012283F83420FB6826
:103BD00093F83530DBB2012B2FD1FB68022283F83A
:103BE0003520FB6800225A653B687A68B968F86836
:103BF00000F0B8F9FB68DB6D3F229A403B699A60A0
:103C0000FB681B681A68FB681B6842F016021A60A2
:103C1000FB681B6C002B07D0FB681B681A68FB68ED
:103C20001B6842F008021A60FB681B681A68FB6890
:103C30001B6842F001021A6005E0FB68002283F86D
:103C400034200223FB75FB7D18461837BD4680BD26
:103C500080B586B000AF78600023BB608E4B1B68D8
:103C60008E4AA2FB03239B0A7B617B689B6D3B61B1
:103C70003B691B68FB607B68DB6D08229A40FB6830
:103C80001340002B1AD07B681B681B6803F00403E9
:103C9000002B13D07B681B681A687B681B6822F0B6
:103CA00004021A607B68DB6D08229A403B699A60C7
:103CB0007B685B6D43F001027B685A657B68DB6D56
:103CC00001229A40FB681340002B12D07B681B68CE
:103CD0005B6903F08003002B0BD07B68DB6D012256
:103CE0009A403B699A607B685B6D43F002027B6897
:103CF0005A657B68DB6D04229A40FB681340002BF9
:103D000012D07B681B681B6803F00203002B0BD0EA
:103D10007B68DB6D04229A403B699A607B685B6D2F
:103D200043F004027B685A657B68DB6D10229A4081
:103D3000FB681340002B43D07B681B681B6803F0B3
:103D40000803002B3CD07B68DB6D10229A403B6956
:103D50009A607B681B681B6803F48023002B18D0D3
:103D60007B681B681B6803F40023002B08D17B6869
:103D70001B6C002B24D07B681B6C786898471FE075
:103D80007B689B6C002B1BD07B689B6C786898478A
:103D900016E07B681B681B6803F48073002B07D157
:103DA0007B681B681A687B681B6822F008021A602F
:103DB0007B681B6C002B03D07B681B6C7868984772
:103DC0007B68DB6D20229A40FB681340002B00F0DB
:103DD0008F807B681B681B6803F01003002B00F0CA
:103DE00087807B68DB6D20229A403B699A607B6804
:103DF00093F83530DBB2052B36D17B681B681A6827
:103E00007B681B6822F016021A607B681B685A697F
:103E10007B681B6822F080025A617B681B6C002B58
:103E200003D17B689B6C002B07D07B681B681A68EA
:103E30007B681B6822F008021A607B68DB6D3F22FA
:103E40009A403B699A607B68012283F835207B6841
:103E5000002283F834207B681B6D002B7ED07B68AA
:103E60001B6D7868984779E07B681B681B6803F4D2
:103E70008023002B1DD07B681B681B6803F4002384
:103E8000002B0DD17B685B6C002B31D07B685B6CA9
:103E9000786898472CE000BFF8D30020B5814E1B0E
:103EA0007B68DB6B002B23D07B68DB6B78689847E3
:103EB0001EE07B681B681B6803F48073002B0FD126
:103EC0007B681B681A687B681B6822F010021A6006
:103ED0007B68012283F835207B68002283F8342038
:103EE0007B68DB6B002B03D07B68DB6B78689847C3
:103EF0007B685B6D002B32D07B685B6D03F0010348
:103F0000002B22D07B68052283F835207B681B6854
:103F10001A687B681B6822F001021A60BB680133D3
:103F2000BB607A699A4207D37B681B681B6803F001
:103F30000103002BF2D100E000BF7B68012283F86F
:103F400035207B68002283F834207B68DB6C002BF3
:103F500005D07B68DB6C7868984700E000BF1837B5
:103F6000BD4680BD80B485B000AFF860B9607A60AE
:103F70003B60FB681B681A68FB681B6822F48022A0
:103F80001A60FB681B683A685A60FB689B68402BA4
:103F900008D1FB681B687A689A60FB681B68BA687E
:103FA000DA6007E0FB681B68BA689A60FB681B6808
:103FB0007A68DA6000BF1437BD465DF8047B70474D
:103FC00080B485B000AF78607B681B68DBB2103BC3
:103FD000144AA2FB03231B09FB60134AFB6813442A
:103FE0001B781A467B68DA65FB68032B09D97B6866
:103FF0001B6823F47F7323F003031A1D7B689A6503
:1040000007E07B681B6823F47F7323F003037A685F
:1040100093657B689B6D18461437BD465DF8047B3D
:10402000704700BFABAAAAAACCAE000880B485B086
:1040300000AF78600023FB737B689B6ABB607B6882
:104040009B69002B1FD1BB68032B56D801A252F8E5
:1040500023F000BF65400008774000086540000875
:10406000FB4000087B68DB6A03F08073002B46D0BE
:104070000123FB7343E07B68DB6AB3F1C07F40D16F
:104080000123FB733DE07B689B69B3F5005F21D1A1
:10409000BB68032B37D801A252F823F0AD400008CB
:1040A000B3400008AD400008C54000080123FB7381
:1040B00030E07B68DB6A03F08073002B25D001239E
:1040C000FB7322E07B68DB6AB3F1C07F1FD1012361
:1040D000FB731CE0BB68022B03D9BB68032B03D026
:1040E00018E00123FB7315E07B68DB6A03F0807343
:1040F000002B0ED00123FB730BE000BF0AE000BFD2
:1041000008E000BF06E000BF04E000BF02E000BF1F
:1041100000E000BFFB7B18461437BD465DF8047B0A
:10412000704700BF80B489B000AF78603960002369
:104130007B6100233B610023BB610023FB6159E1EC
:104140000122FB6902FA03F37B613B681B687A6911
:1041500013403B613A697B699A4240F048813B6871
:104160005B6803F00303012B05D03B685B6803F039
:104170000303022B30D17B689B68BB61FB695B004A
:10418000032202FA03F3DB43BA691340BB613B68C5
:10419000DA68FB695B0002FA03F3BA691343BB6197
:1041A0007B68BA699A607B685B68BB610122FB69C6
:1041B00002FA03F3DB43BA691340BB613B685B68F7
:1041C0001B0903F00102FB6902FA03F3BA69134306
:1041D000BB617B68BA695A603B685B6803F00303A4
:1041E000032B17D07B68DB68BB61FB695B00032294
:1041F00002FA03F3DB43BA691340BB613B689A6878
:10420000FB695B0002FA03F3BA691343BB617B6885
:10421000BA69DA603B685B6803F00303022B23D1C1
:10422000FB69DA087B68083253F82230BB61FB690E
:1042300003F007039B000F2202FA03F3DB43BA6982
:104240001340BB613B681A69FB6903F007039B00DD
:1042500002FA03F3BA691343BB61FB69DA087B68AE
:104260000832B96943F822107B681B68BB61FB699F
:104270005B00032202FA03F3DB43BA691340BB611C
:104280003B685B6803F00302FB695B0002FA03F31F
:10429000BA691343BB617B68BA691A603B685B68A3
:1042A00003F44033002B00F0A2800023FB60574B47
:1042B0005B6C564A43F480435364544B5B6C03F489
:1042C0008043FB60FB68524AFB699B08023352F84B
:1042D0002330BB61FB6903F003039B000F2202FA4A
:1042E00003F3DB43BA691340BB617B68494A9342DD
:1042F00019D07B68484A934213D07B68474A93425F
:104300000DD07B68464A934207D07B68454A93426A
:1043100001D1042308E0072306E0032304E002237D
:1043200002E0012300E00023FA6902F00302920098
:104330009340BA691343BB613549FB699B0802335B
:10434000BA6941F82320384B9B68BB613B69DB436A
:10435000BA691340BB613B685B6803F48013002BB0
:1043600003D0BA693B691343BB612F4ABB699360B1
:104370002D4BDB68BB613B69DB43BA691340BB6112
:104380003B685B6803F40013002B03D0BA693B69F8
:104390001343BB61244ABB69D360234B5B68BB6199
:1043A0003B69DB43BA691340BB613B685B6803F45C
:1043B0000033002B03D0BA693B691343BB611A4A2F
:1043C000BB695360184B1B68BB613B69DB43BA692F
:1043D0001340BB613B685B6803F48033002B03D060
:1043E000BA693B691343BB610F4ABB691360FB6940
:1043F0000133FB61FB690F2B7FF6A2AE00BF00BF4C
:104400002437BD465DF8047B704700BF003802408A
:104410000038014000000240000402400008024051
:10442000000C024000100240003C014080B485B006
:1044300000AF78600B467B807B681A697B881340ED
:10444000002B02D00123FB7301E00023FB73FB7BF5
:1044500018461437BD465DF8047B704780B483B0BE
:1044600000AF78600B467B8013467B707B78002B17
:1044700003D07A887B689A6103E07B881A047B68A2
:104480009A6100BF0C37BD465DF8047B70470000A1
:1044900080B586B000AF78607B68002B01D1012326
:1044A00067E27B681B6803F00103002B75D0884B23
:1044B0009B6803F00C03042B0CD0854B9B6803F026
:1044C0000C03082B12D1824B5B6803F48003B3F515
:1044D000800F0BD17E4B1B6803F40033002B5BD0A5
:1044E0007B685B68002B57D1012342E27B685B68E5
:1044F000B3F5803F06D1764B1B68754A43F4803391
:1045000013601DE07B685B68B3F5A02F0CD1704B86
:104510001B686F4A43F4802313606D4B1B686C4A21
:1045200043F4803313600BE0694B1B68684A23F443
:1045300080331360664B1B68654A23F48023136045
:104540007B685B68002B13D0FEF78CFD386108E0B8
:10455000FEF788FD02463B69D31A642B01D9032379
:1045600007E25B4B1B6803F40033002BF0D014E030
:10457000FEF778FD386108E0FEF774FD02463B69FE
:10458000D31A642B01D90323F3E1514B1B6803F4C5
:104590000033002BF0D100E000BF7B681B6803F004
:1045A0000203002B63D04A4B9B6803F00C03002BE3
:1045B0000BD0474B9B6803F00C03082B1CD1444BDA
:1045C0005B6803F48003002B16D1414B1B6803F09A
:1045D0000203002B05D07B68DB68012B01D001238F
:1045E000C7E13B4B1B6823F0F8027B681B69DB00CB
:1045F000374913430B603AE07B68DB68002B20D01F
:10460000344B01221A60FEF72DFD386108E0FEF7F9
:1046100029FD02463B69D31A022B01D90323A8E1E5
:104620002B4B1B6803F00203002BF0D0284B1B68B8
:1046300023F0F8027B681B69DB00254913430B60FC
:1046400015E0244B00221A60FEF70CFD386108E0EB
:10465000FEF708FD02463B69D31A022B01D903235A
:1046600087E11B4B1B6803F00203002BF0D17B6832
:104670001B6803F00803002B36D07B685B69002BB6
:1046800016D0154B01221A60FEF7ECFC386108E0E9
:10469000FEF7E8FC02463B69D31A022B01D903233B
:1046A00067E10B4B5B6F03F00203002BF0D01BE0C4
:1046B000094B00221A60FEF7D5FC38610EE0FEF7C8
:1046C000D1FC02463B69D31A022B07D9032350E1E0
:1046D0000038024000004742800E4742884B5B6F23
:1046E00003F00203002BEAD17B681B6803F004038C
:1046F000002B00F097800023FB75814B1B6C03F0AF
:104700008053002B0FD10023BB607D4B1B6C7C4A78
:1047100043F0805313647A4B1B6C03F08053BB60EF
:10472000BB680123FB75774B1B6803F48073002B78
:1047300018D1744B1B68734A43F480731360FEF7FF
:1047400091FC386108E0FEF78DFC02463B69D31A04
:10475000022B01D903230CE16A4B1B6803F480731D
:10476000002BF0D07B689B68012B06D1644B1B6F3C
:10477000634A43F0010313671CE07B689B68052BC9
:104780000CD15F4B1B6F5E4A43F0040313675C4B15
:104790001B6F5B4A43F0010313670BE0584B1B6F21
:1047A000574A23F001031367554B1B6F544A23F0FC
:1047B000040313677B689B68002B15D0FEF752FC3F
:1047C00038610AE0FEF74EFC02463B69D31A41F21B
:1047D0008832934201D90323CBE0494B1B6F03F08E
:1047E0000203002BEED014E0FEF73CFC38610AE037
:1047F000FEF738FC02463B69D31A41F288329342F5
:1048000001D90323B5E03E4B1B6F03F00203002BDD
:10481000EED1FB7D012B05D1394B1B6C384A23F0BF
:10482000805313647B689B69002B00F0A180344B9C
:104830009B6803F00C03082B5CD07B689B69022B00
:1048400041D1314B00221A60FEF70CFC386108E0C0
:10485000FEF708FC02463B69D31A022B01D9032359
:1048600087E0274B1B6803F00073002BF0D17B68B7
:10487000DA697B681B6A1A437B685B6A9B011A438F
:104880007B689B6A5B08013B1B041A437B68DB6AFD
:104890001B061B4913434B601B4B01221A60FEF79A
:1048A000E1FB386108E0FEF7DDFB02463B69D31A05
:1048B000022B01D903235CE0114B1B6803F000734A
:1048C000002BF0D054E0104B00221A60FEF7CAFB18
:1048D000386108E0FEF7C6FB02463B69D31A022B9B
:1048E00001D9032345E0064B1B6803F00073002B3E
:1048F000F0D13DE07B689B69012B07D1012338E0B3
:104900000038024000700040600047421B4B5B686B
:10491000FB607B689B69012B28D0FB6803F4800255
:104920007B68DB699A4221D1FB6803F03F027B6818
:104930001B6A9A421AD1FA6847F6C07313407A6824
:10494000526A9201934211D1FB6803F440327B68B2
:104950009B6A5B08013B1B049A4207D1FB6803F08A
:1049600070627B68DB6A1B069A4201D0012300E07B
:10497000002318461837BD4680BD00BF00380240EE
:1049800080B584B000AF786039607B68002B01D1BE
:104990000123CCE0684B1B6803F007033A689A4296
:1049A0000CD9654B3A68D2B21A70634B1B6803F09E
:1049B00007033A689A4201D00123B8E07B681B687C
:1049C00003F00203002B20D07B681B6803F0040374
:1049D000002B05D0594B9B68584A43F4E053936031
:1049E0007B681B6803F00803002B05D0534B9B68C2
:1049F000524A43F460439360504B9B6823F0F002AB
:104A00007B689B684D4913438B607B681B6803F090
:104A10000103002B44D07B685B68012B07D1474B17
:104A20001B6803F40033002B19D101237FE07B685E
:104A30005B68022B03D07B685B68032B07D13F4B7D
:104A40001B6803F00073002B09D101236FE03B4B7F
:104A50001B6803F00203002B01D1012367E0374BF1
:104A60009B6823F003027B685B68344913438B60C7
:104A7000FEF7F8FAF8600AE0FEF7F4FA0246FB687F
:104A8000D31A41F28832934201D903234FE02B4BD2
:104A90009B6803F00C027B685B689B009A42EBD139
:104AA000254B1B6803F007033A689A420CD2224B4D
:104AB0003A68D2B21A70204B1B6803F007033A68B9
:104AC0009A4201D0012332E07B681B6803F00403A3
:104AD000002B08D0194B9B6823F4E0527B68DB68FD
:104AE000164913438B607B681B6803F00803002B97
:104AF00009D0124B9B6823F460427B681B69DB0082
:104B00000E4913438B6000F021F802460B4B9B6863
:104B10001B0903F00F030A49CB5C22FA03F3094A8D
:104B20001360094B1B681846FEF758FA0023184615
:104B30001037BD4680BD00BF003C02400038024037
:104B4000BCAE0008F8D30020FCD300202DE9B04F04
:104B500090B000AF00237B630023FB6300233B6323
:104B60000023BB63594B9B6803F00C03082B0DD04B
:104B7000082B00F2A180002B02D0042B03D09BE075
:104B8000534BBB639BE0534BBB6398E04F4B5B685D
:104B900003F03F037B634D4B5B6803F48003002B02
:104BA00028D04A4B5B689B0900223B627A623B6AD1
:104BB000C3F308000021474B03FB01F2002300FB75
:104BC00003F31344434AA0FB0212FA620A46BA6294
:104BD000FA6A1344FB627B6B0022BB61FA61D7E97E
:104BE0000623D7E90A01FCF757F802460B4613469D
:104BF000FB6353E0354B5B689B0900223B617A61A4
:104C00003B69C3F3080A4FF0000B52465B464FF076
:104C100000004FF00001590141EAD2615001024603
:104C20000B46B2EB0A0863EB0B094FF000024FF0A2
:104C300000034FEA891343EA98634FEA8812B2EB04
:104C4000080463EB09054FF000024FF00003EB008E
:104C500043EA5473E20014461D4614EB0A033B601A
:104C600045EB0B037B604FF000024FF00003D7E9E8
:104C7000004529468B02214643EA915321468A0288
:104C8000104619467B6B0022BB60FA60D7E902230D
:104C9000FCF702F802460B461346FB630B4B5B68BE
:104CA0001B0C03F0030301335B003B63FA6B3B6BAC
:104CB000B2FBF3F3BB6302E0054BBB6300BFBB6B0E
:104CC00018464037BD46BDE8B08F00BF00380240EF
:104CD0000024F40040787D0180B586B000AF786094
:104CE00000237B6100233B617B681B6803F00103A9
:104CF000002B05D17B681B6803F00403002B35D023
:104D0000674B00221A60FEF7ADF9786108E0FEF704
:104D1000A9F902467B69D31A022B01D90323BAE011
:104D2000604B1B6803F00063002BF0D17B685B686D
:104D30009A017B689B681B075A491343C1F884306A
:104D4000574B01221A60FEF78DF9786108E0FEF7F3
:104D500089F902467B69D31A022B01D903239AE011
:104D6000504B1B6803F00063002BF0D07B681B687E
:104D700003F00203002B00F083800023FB60494B0B
:104D80001B6C484A43F080531364464B1B6C03F082
:104D90008053FB60FB68444B1B68434A43F48073B9
:104DA0001360FEF75FF9786108E0FEF75BF90246F1
:104DB0007B69D31A022B01D903236CE03A4B1B68A1
:104DC00003F48073002BF0D0364B1B6F03F4407359
:104DD0003B613B69002B2FD07B68DB6803F4407399
:104DE0003A699A4228D02F4B1B6F23F440733B61E2
:104DF0002E4B01221A602D4B00221A60294A3B6972
:104E00001367284B1B6F03F00103012B14D1FEF72E
:104E100029F978610AE0FEF725F902467B69D31A81
:104E200041F28832934201D9032334E01D4B1B6FBA
:104E300003F00203002BEED07B68DB6803F44073C1
:104E4000B3F5407F0DD1174B9B6823F4F8127B68B4
:104E5000DB6823F0704323F44073124913438B60E3
:104E600005E0104B9B680F4A23F4F81393600D4B39
:104E70001A6F7B68DB68C3F30B030A4913430B67A4
:104E80007B681B6803F00803002B03D07B681A7C47
:104E9000074B1A60002318461837BD4680BD00BF77
:104EA000680047420038024000700040400E474210
:104EB000E011474280B584B000AF78600123FB73F6
:104EC0007B68002B01D1012373E07B685B7FDBB241
:104ED000002B05D17B6800221A777868FDF78EFDDC
:104EE0007B6802225A777B681B68DB6803F010033B
:104EF000102B55D07B681B68CA225A627B681B68DE
:104F000053225A62786800F049FA0346FB73FB7B30
:104F1000002B2CD17B681B689B687A68126823F48D
:104F2000E00323F0400393607B681B6899687B680B
:104F30005A687B681B691A437B685B691A437B6804
:104F40001B680A439A607B681B687A68D2681A619A
:104F50007B681B6819697B689B681A047B681B68FF
:104F60000A431A61786800F050FA0346FB73FB7B32
:104F7000002B10D17B681B681A6C7B681B6822F4BD
:104F800080221A647B681B68196C7B689A697B684D
:104F90001B680A431A647B681B68FF225A6201E09F
:104FA0000023FB73FB7B002B02D17B6801225A7725
:104FB000FB7B18461037BD4680BD90B587B000AF6B
:104FC000F860B9607A6000237B61FB681B7F012B6E
:104FD00001D1022387E0FB6801221A77FB680222D5
:104FE0005A777B68002B26D1FB681B689B6803F00F
:104FF0004003002B02D1BB680022DA70BB681B782B
:10500000184600F027FA03461C04BB685B78184674
:1050100000F020FA03461B021C43BB689B7818462D
:1050200000F018FA034644EA0302BB68DB789B05EC
:1050300013437B6118E0FB681B689B6803F0400327
:10504000002B02D1BB680022DA70BB681B781A04FF
:10505000BB685B781B021343BA6892781A43BB683B
:10506000DB789B0513437B61FB681B68CA225A628D
:10507000FB681B6853225A62F86800F08FF90346F8
:10508000FB74FB7C002B20D1FB681A687B6903F062
:105090007F3323F0FE431360FB681B689A68FB684C
:1050A0001B6822F480229A60FB681B689968BB68C1
:1050B000DA68BB681B691A43FB681B680A439A607D
:1050C000F86800F0A2F90346FB74FB7C002B02D1C8
:1050D000FB6801225A77FB681B68FF225A62FB6853
:1050E00000221A77FB7C18461C37BD4690BD80B560
:1050F00086B000AFF860B9607A6000237B61FB681E
:105100001B689A6ABB685A60FB681B681B69C3F31B
:105110000E02BB689A60FB681B681B6803F07F3354
:1051200023F0FE437B617B691B0CDBB203F03F0382
:10513000DAB2BB681A707B691B0ADBB203F07F032B
:10514000DAB2BB685A707B69DBB203F07F03DAB274
:10515000BB689A707B699B0DDBB203F00103DAB286
:10516000BB68DA707B68002B1AD1BB681B781846C5
:1051700000F08EF903461A46BB681A70BB685B786C
:10518000184600F085F903461A46BB685A70BB689A
:105190009B78184600F07CF903461A46BB689A7063
:1051A000002318461837BD4680BD90B587B000AFC4
:1051B000F860B9607A6000237B61FB681B7F012B7C
:1051C00001D1022371E0FB6801221A77FB680222F9
:1051D0005A777B68002B0ED1BB685B7803F0100315
:1051E000002B08D0BB685B7823F01003DBB20A33D6
:1051F000DAB2BB685A707B68002B1CD1BB68DB78C5
:10520000184600F027F903461C04BB685B78184673
:1052100000F020F903461B021C43BB689B7818462C
:1052200000F018F9034644EA0302BB681B785B03ED
:1052300013437B610EE0BB68DB781A04BB685B78C4
:105240001B021343BA6892781A43BB681B785B034E
:1052500013437B61FB681B68CA225A62FB681B68A8
:1052600053225A62F86800F099F80346FB74FB7CFD
:10527000002B0CD1FB681A687B6923F07F4323F075
:10528000C0035360F86800F0C0F80346FB74FB7C71
:10529000002B02D1FB6801225A77FB681B68FF22B2
:1052A0005A62FB6800221A77FB7C18461C37BD4601
:1052B00090BD80B586B000AFF860B9607A60002319
:1052C0007B61FB681B685B6823F07F4323F0C003AE
:1052D0007B617B691B0CDAB2BB68DA707B691B0AE5
:1052E000DBB203F01F03DAB2BB685A707B69DBB232
:1052F00003F03F03DAB2BB689A707B695B0BDBB2E9
:1053000003F00703DAB2BB681A707B68002B1AD16E
:10531000BB68DB78184600F0BBF803461A46BB684A
:10532000DA70BB685B78184600F0B2F803461A469C
:10533000BB685A70BB689B78184600F0A9F8034612
:105340001A46BB689A70002318461837BD4680BDC0
:1053500080B584B000AF78600023FB607B681B6879
:105360000D4ADA60FDF77EFEF86009E0FDF77AFE8F
:105370000246FB68D31AB3F57A7F01D9032307E00D
:105380007B681B68DB6803F02003002BEED0002352
:1053900018461037BD4680BD5F3F010080B584B020
:1053A00000AF78600023BB600023FB737B681B6841
:1053B000DB6803F04003002B22D17B681B68DA68AE
:1053C0007B681B6842F08002DA60FDF74BFEB86034
:1053D0000CE0FDF747FE0246BB68D31AB3F57A7FAF
:1053E00004D97B6804225A770123FB737B681B680E
:1053F000DB6803F04003002B02D1FB7B012BE8D1DB
:10540000FB7B18461037BD4680BD80B584B000AF29
:1054100078600023FB737B681B68DA687B681B6815
:1054200022F08002DA607B681B689B6803F020032F
:10543000002B0AD17868FFF78BFF0346002B04D0BE
:105440007B6804225A770123FB73FB7B18461037D5
:10545000BD4680BD80B485B000AF0346FB7100231C
:10546000FB6005E0FB680133FB60FB790A3BFB71E5
:10547000FB79092BF6D8FB68DBB21B01DAB2FB79AA
:105480001343DBB218461437BD465DF8047B704702
:1054900080B485B000AF0346FB710023FB60FB794D
:1054A0001B09DBB21A4613469B0013445B00FB60EA
:1054B000FB68DAB2FB7903F00F03DBB21344DBB213
:1054C00018461437BD465DF8047B704780B582B03E
:1054D00000AF78607B68002B01D101237BE07B6803
:1054E0005B6A002B08D17B685B68B3F5827F09D0CB
:1054F0007B680022DA6105E07B6800221A617B6824
:1055000000225A617B6800229A627B6893F85130CE
:10551000DBB2002B06D17B68002283F8502078682C
:10552000FDF798FA7B68022283F851207B681B689C
:105530001A687B681B6822F040021A607B685B680F
:1055400003F482727B689B6803F404431A437B680C
:10555000DB6803F400631A437B681B6903F00203F2
:105560001A437B685B6903F001031A437B689B69FC
:1055700003F400731A437B68DB6903F038031A43B2
:105580007B681B6A03F0800342EA03017B689B6A25
:1055900003F400527B681B680A431A607B689B69AE
:1055A0001B0C03F004017B685B6A03F010027B684C
:1055B0001B680A435A607B681B68DA697B681B6852
:1055C00022F40062DA617B6800225A657B6801225E
:1055D00083F85120002318460837BD4680BD0000DF
:1055E00080B586B000AFF860B9601346FB80002339
:1055F000FB75FB6893F85030012B01D1022397E033
:10560000FB68012283F85020FB6893F85130DBB22D
:10561000012B02D00223FB7585E0BB68002B02D072
:10562000FB88002B02D10123FB757CE0FB68032281
:1056300083F85120FB6800225A65FB68BA681A6338
:10564000FB68FA889A86FB68FA88DA86FB6800228B
:105650009A63FB6800225A64FB6800221A64FB68A4
:1056600000229A87FB680022DA87FB689B68B3F503
:10567000004F0FD1FB681B681A68FB681B6822F09B
:1056800040021A60FB681B681A68FB681B6842F4DA
:1056900080421A60FB689B6C274A1A64FB689B6C0B
:1056A000264ADA63FB689B6C254ADA64FB689B6CCC
:1056B00000221A65FB68986CFB681B6B1946FB6837
:1056C0001B680C331A46FB68DB8E9BB2FEF768FA48
:1056D0000346002B08D0FB685B6D43F01002FB68AB
:1056E0005A650123FB751EE0FB681B681B6803F00D
:1056F0004003402B07D0FB681B681A68FB681B68D7
:1057000042F040021A60FB681B685A68FB681B681D
:1057100042F020025A60FB681B685A68FB681B68ED
:1057200042F002025A60FB68002283F85020FB7DA1
:1057300018461837BD4680BD455800089D570008DB
:105740006158000880B483B000AF786000BF0C37A8
:10575000BD465DF8047B704780B483B000AF7860CD
:1057600000BF0C37BD465DF8047B704780B483B042
:1057700000AF786000BF0C37BD465DF8047B704712
:1057800080B483B000AF78607B6893F85130DBB2AF
:1057900018460C37BD465DF8047B704780B586B06F
:1057A00000AF78607B689B6B7B61FDF75BFC3861C9
:1057B0007B681B681B6803F48073B3F5807F3BD064
:1057C0007B691B685A687B691B6822F020025A605B
:1057D0007B691B685A687B691B6822F002025A6069
:1057E0003A696421786900F0E3F80346002B05D09C
:1057F0007B695B6D43F020027B695A657B699B681E
:10580000002B0AD10023FB607B691B68DB68FB600F
:105810007B691B689B68FB60FB687B690022DA86FA
:105820007B69012283F851207B695B6D002B03D0DB
:105830007869FFF79BFF02E07869FFF783FF18376D
:10584000BD4680BD80B584B000AF78607B689B6B3F
:10585000FB60F868FFF780FF00BF1037BD4680BDD2
:1058600080B584B000AF78607B689B6BFB60FB68A1
:105870001B685A68FB681B6822F003025A60FB68C9
:105880005B6D43F01002FB685A65FB68012283F8E8
:105890005120F868FFF76AFF00BF1037BD4680BD92
:1058A00080B588B000AFF860B9603B601346FB710B
:1058B000FDF7D8FB0246BB6A9B1A3A681344FB61AA
:1058C000FDF7D0FBB861394B1B685B011B0DFA6912
:1058D00002FB03F37B6154E03B68B3F1FF3F50D020
:1058E000FDF7C0FB0246BB69D31AFA699A4202D996
:1058F000FB69002B3DD1FB681B685A68FB681B687D
:1059000022F0E0025A60FB685B68B3F5827F11D138
:10591000FB689B68B3F5004F04D0FB689B68B3F548
:10592000806F07D1FB681B681A68FB681B6822F050
:1059300040021A60FB689B6AB3F5005F0FD1FB68F9
:105940001B681A68FB681B6822F400521A60FB6827
:105950001B681A68FB681B6842F400521A60FB68F7
:10596000012283F85120FB68002283F85020032392
:1059700017E07B69002B01D10023FB617B69013BB0
:105980007B61FB681B689A68BB681340BA689A42DF
:105990000CBF01230023DBB21A46FB799A429BD14C
:1059A000002318462037BD4680BD00BFF8D3002035
:1059B00080B588B002AFF860B9607A607B68009308
:1059C000BB6801220221F868FFF76AFF0346002B3B
:1059D00007D0FB685B6D43F02002FB685A65032328
:1059E00032E01B4B1B681B4AA2FB03235B0D4FF4E9
:1059F0007A7202FB03F37B61FB685B68B3F5827F1D
:105A000012D17B680093BB6800228021F868FFF701
:105A100047FF0346002B16D0FB685B6D43F0200266
:105A2000FB685A6503230FE07B69002B0AD07B6972
:105A3000013B7B61FB681B689B6803F08003802B44
:105A4000F2D000E000BF002318461837BD4680BDE5
:105A5000F8D30020819F5E1680B582B000AF7860D9
:105A60007B68002B01D1012341E07B6893F83D3036
:105A7000DBB2002B06D17B68002283F83C207868DB
:105A8000FDF796F87B68022283F83D207B681A6850
:105A90007B6804331946104600F0C0FA7B68012287
:105AA00083F846207B68012283F83E207B68012230
:105AB00083F83F207B68012283F840207B68012225
:105AC00083F841207B68012283F842207B68012211
:105AD00083F843207B68012283F844207B680122FD
